:100000000C9463010C948B010C948B010C948B0168
:100010000C948B010C948B010C948B010C948B0130
:100020000C948B010C948B010C948B010C948B0120
:100030000C948B010C948B010C948B010C948B0110
:100040000C9422040C948B010C941F060C946D06E6
:100050000C948B010C948B010C948B010C948B01F0
:100060000C948B010C948B01FFFFFFFFFFFFFFFF40
:10007000FFFFFFFFFFFFFFFFFFFFFFFFFFFFFFFF90
:10008000FFFFFFFFFFFFFF4F4C49474543413F3E06
:100090003C3A39343231302F31302F2E2D2C2B2B4E
:1000A0002A29282827262525242423232221212004
:1000B000201F1F1F1E1E1D1D1D1C1C1B1B1B1A1A73
:1000C0001A191919191818181717171716161616B6
:1000D00016151515151414141414141313131313DF
:1000E00012121212121212111111111111111010FB
:1000F00010101010101010100F0F0F0F0F0F0F0E09
:100100000E0E0E0E0E0E0E0E0D0D0D0D0D0D0D0D17
:100110000D0D0D0D0D0C0C0C0C0C0C0C0C0C0C0C1A
:100120000C0C0C0B0B0B0B0B0B0B0B0B0B0B0B0B1C
:100130000B0B0B0B0B0B0A0A0A0A0A0A0A0A00002D
:1001400000000000000000000000000000000000AF
:10015000000000000000000000000000000000009F
:100160000000000000000000FF7F5D4D433C363280
:100170002F2C2A2826242322201F1E1E1D1C1B1B59
:100180001A1A19191816141313121211111110102A
:10019000100F0F0F0E0E0E0D0D0D0D0D0C0C0C0C87
:1001A0000C0B0B0B0B0B0B0A0A0A0A0A0A0A0A09A8
:1001B00009090909090909090808080808080808B7
:1001C00008080808080707070707070707070707BA
:1001D00007070707070606060606060606060606BA
:1001E00006060606060606060606060606050505B2
:1001F00005050505050505050500000000000000D2
:1002000000000000000000000000000000000000EE
:1002100000000000000000000000000000000000DE
:1002200000000000000000000000000000000000CE
:1002300000000000000000000000000000000000BE
:1002400000000000000000000000000000000000AE
:10025000000000000000000000000000000000009E
:100260000000000000000000000000002400270043
:100270002A0000000000250028002B0000000000DC
:1002800023002600290004040404040404040202D8
:100290000202020203030303030301020408102005
:1002A0004080010204081020010204081020000010
:1002B0000007000201000003040600000000000027
:1002C00000008D01D90711241FBECFEFD8E0DEBF9B
:1002D000CDBF11E0A0E0B1E0E6E1FAE102C0059097
:1002E0000D92A833B107D9F712E0A8E3B1E001C03D
:1002F0001D92A739B107E1F712E0C6ECD2E004C0C5
:100300002297FE010E94050DC23CD107C9F70E9449
:100310002F080C94090D0C94000088E391E06EE125
:100320000E94B10284ED91E00E94A1030895EF9232
:10033000FF920F931F93AA2797FDA095BA2FBC0198
:10034000CD010E94650B7B018C01609125017091AC
:100350002601882777FD8095982F0E94650B9B01C9
:10036000AC01C801B7010E94CA0A9B01AC0160E060
:1003700070E080E89FE30E94610A7B018C012DEC14
:100380003CEC4CEC5DE30E94C60A882354F40F2E2B
:10039000F0E0EF2EF0E0FF2EF0E00F2FF0E01F2F47
:1003A000F02DC801B70120E030E04FE753E40E9490
:1003B000190C0E94320B9B01AC018AE0B9010E942A
:1003C000D80485E792E0B801A70122E030E00E945E
:1003D0003B0A1F910F91FF90EF9008950F931F9389
:1003E000CF93DF9383E00E94CB058C01009709F047
:1003F00048C0C0912101D0912201C130D10509F03E
:1004000040C00E946A042091DE013091DF014091DA
:10041000E0015091E101621B730B840B950B20915D
:10042000230130912401442737FD4095542F26178E
:1004300037074807590728F58091E2019091E301B9
:10044000892B59F485E792E060E071E00E944E0A42
:10045000D093E301C093E2010AC085E792E069E02E
:1004600071E00E944E0A1092E3011092E2010E9494
:100470006A046093DE017093DF018093E001909342
:10048000E10110932201009321018091E201DF91AB
:10049000CF911F910F9108950E94EE01882309F4D6
:1004A00040C08BE061E00E94770584ED91E00E94FE
:1004B000F803AA2797FDA095BA2FBC01CD010E9491
:1004C000650BAB01BC0188E391E00E94BE02609124
:1004D000DA017091DB018091DC019091DD016F5FA9
:1004E0007F4F8F4F9F4F6093DA017093DB018093B2
:1004F000DC019093DD012AE030E040E050E00E9412
:10050000D40C611571058105910599F488E391E09A
:100510000E9479030E94320BDC01CB010E949701FB
:1005200008958BE060E00E9477058AE060E00E9419
:100530007705089583E060E00E9438058BE061E074
:100540000E94380584ED91E063E170E00E940604AA
:1005500085E792E040E855E260E070E00E94A8067E
:100560000895FC01662311F461E003C0643108F0D2
:1005700063E161831282138210820895DC01139675
:100580009C911397E92FF0E03196EE0FFF1FEE0FCD
:10059000FF1FEA0FFB1F40835183628373839F5FBA
:1005A00013969C93139711968C911197981718F0A6
:1005B00013961C92139712969C91129711968C91F8
:1005C0001197981720F49F5F12969C9312971C9294
:1005D0000895BF92CF92DF92EF92FF920F931F93F5
:1005E000CF93DF93EC0140E01BC0E42FF0E0749662
:1005F0009F01220F331F220F331F2C0F3D1F7397B4
:10060000EE0FFF1FEE0FFF1FEC0FFD1F808191818A
:10061000A281B381F90180839183A283B3834F5F69
:100620008A81481710F3FF244EC0BF2CB3940F2DBE
:100630001B2D20C0A12FB0E05496AA0FBB1FAA0FFC
:10064000BB1FAC0FBD1FE02FF0E07496EE0FFF1F35
:10065000EE0FFF1FEC0FFD1F6D917D918D919C9111
:1006600020813181428153810E94C60A88230CF483
:10067000012F1F5F1E15F0F20F1521F1E02FF0E0A2
:100680007496EE0FFF1FEE0FFF1FEC0FFD1F408152
:1006900051816281738196012C5E3F4F220F331F7F
:1006A000220F331F2C0F3D1FD901ED90FD900D91AE
:1006B0001C91E082F18202831383F901408351830C
:1006C00062837383FB2CCF2CDD24EA808E2D90E097
:1006D0000197C816D9060CF4A8CF81E08883DF9172
:1006E000CF911F910F91FF90EF90DF90CF90BF902F
:1006F0000895CF93DF93EC018A81882329F470E079
:1007000060E090EC8FE714C08881882319F4CE0153
:100710000E94E902EA81E695F0E07496EE0FFF1F71
:10072000EE0FFF1FEC0FFD1F7081618192818381AD
:10073000272F362F492F582FB901CA01DF91CF91AA
:1007400008950895FC01758364836330710519F47D
:1007500080E00E94B3040895EF92FF920F931F93DD
:10076000CF93DF937C01FC0184819581039729F06D
:1007700000E010E0C0E0D0E02AC000E010E0C0E0FF
:10078000D0E00FC0F70180810E94B60464E070E001
:100790000E949F0CFB01E859FF4FE4910E0F111DC1
:1007A0002196F70162817381C617D7075CF315C0E4
:1007B000F70180810E94B60464E070E00E949F0C03
:1007C000FB01E859FE4FE4910E0F111D2196F70130
:1007D00062817381C617D7075CF3C8010E949F0C22
:1007E000CB01DF91CF911F910F91FF90EF90089572
:1007F0000F931F938C01FC0180810E94B604BC0101
:10080000C8010E94AC031F910F910895EF92FF92CF
:100810000F931F938C01F62EE72E862F60E00E9427
:100820003805F801F082E18284E690E093838283C8
:10083000C80165E070E00E94A2031F910F91FF9034
:10084000EF9008951F920F920FB60F9211242F93DD
:100850003F938F939F93AF93BF938091E8019091C3
:10086000E901A091EA01B091EB013091EC01019610
:10087000A11DB11D232F2D5F2D3720F02D5701967F
:10088000A11DB11D2093EC018093E8019093E90133
:10089000A093EA01B093EB018091E4019091E5010E
:1008A000A091E601B091E7010196A11DB11D8093D1
:1008B000E4019093E501A093E601B093E701BF91B5
:1008C000AF919F918F913F912F910F900FBE0F90FD
:1008D0001F9018958FB7F8942091E8013091E901A5
:1008E0004091EA015091EB018FBFB901CA0108950F
:1008F000789484B5826084BD84B5816084BD85B5FB
:10090000826085BD85B5816085BDEEE6F0E08081C1
:1009100081608083E1E8F0E01082808182608083E2
:10092000808181608083E0E8F0E080818160808365
:10093000E1EBF0E0808184608083E0EBF0E0808197
:1009400081608083EAE7F0E0808184608083808139
:1009500082608083808181608083808180688083E1
:100960001092C1000895809327010895982F8E302A
:1009700008F09E509770809127018295880F880F0C
:10098000807C892B80937C0080917A0080648093A6
:100990007A0080917A0086FDFCCF2091780040910A
:1009A0007900942F80E030E0282B392BC90108957D
:1009B0001F93CF93DF93182FEB0161E00E9438055E
:1009C000209709F44AC0CF3FD10509F449C0E12F6F
:1009D000F0E0E255FD4F84918330C1F0843028F47B
:1009E000813051F08230B1F50CC0863019F187307A
:1009F00049F1843079F514C084B5806884BDC7BDE1
:100A000033C084B5806284BDC8BD2EC08091800093
:100A1000806880938000D0938900C093880024C0B0
:100A200080918000806280938000D0938B00C0937F
:100A30008A001AC08091B00080688093B000C09393
:100A4000B30012C08091B00080628093B000C09368
:100A5000B4000AC0C038D1051CF4812F60E002C088
:100A6000812F61E00E947705DF91CF911F9108955A
:100A7000CF93DF93482F50E0CA0186569D4FFC016B
:100A800034914A575D4FFA018491882369F190E0CF
:100A9000880F991FFC01E859FD4FA591B491FC0105
:100AA000EE58FD4FC591D491662351F42FB7F894B9
:100AB0008C91932F909589238C93888189230BC0E7
:100AC000623061F42FB7F8948C91932F909589231D
:100AD0008C938881832B88832FBF06C09FB7F8949F
:100AE0008C91832B8C939FBFDF91CF910895482FDA
:100AF00050E0CA0182559D4FFC012491CA018656DF
:100B00009D4FFC0194914A575D4FFA013491332374
:100B100009F440C0222351F1233071F0243028F42D
:100B20002130A1F0223011F514C02630B1F0273069
:100B3000C1F02430D9F404C0809180008F7703C0C5
:100B4000809180008F7D8093800010C084B58F7766
:100B500002C084B58F7D84BD09C08091B0008F77BD
:100B600003C08091B0008F7D8093B000E32FF0E050
:100B7000EE0FFF1FEE58FD4FA591B4912FB7F894DB
:100B8000662321F48C919095892302C08C91892B46
:100B90008C932FBF0895682F70E0CB0182559D4F35
:100BA000FC012491CB0186569D4FFC0144916A576C
:100BB0007D4FFB019491992319F420E030E03CC073
:100BC000222351F1233071F0243028F42130A1F098
:100BD000223011F514C02630B1F02730C1F0243096
:100BE000D9F404C0809180008F7703C08091800089
:100BF0008F7D8093800010C084B58F7702C084B54C
:100C00008F7D84BD09C08091B0008F7703C0809133
:100C1000B0008F7D8093B000892F90E0880F991FDE
:100C200084589D4FFC01A591B4918C9120E030E057
:100C3000842311F021E030E0C901089508951F9246
:100C40000F920FB60F9211242F933F934F938F93D0
:100C50009F93EF93FF938091C00082FD1DC0409150
:100C6000C60020912D0230912E022F5F3F4F2F732F
:100C7000307080912F02909130022817390771F05F
:100C8000E0912D02F0912E02E351FE4F408330930C
:100C90002E0220932D0202C08091C600FF91EF9199
:100CA0009F918F914F913F912F910F900FBE0F9079
:100CB0001F901895E0918102F0918202E05CFF4F55
:100CC0008191919120813181821B930B8F73907060
:100CD000892B11F00E941E0608951F920F920FB6E5
:100CE0000F9211242F933F938F939F93EF93FF9332
:100CF000209171023091720280917302909174027E
:100D00002817390731F48091C1008F7D8093C1008D
:100D100014C0E0917302F0917402EF5CFD4F2081EA
:100D2000809173029091740201968F7390709093EA
:100D30007402809373022093C600FF91EF919F91FC
:100D40008F913F912F910F900FBE0F901F9018958C
:100D5000AF92BF92DF92EF92FF920F931F93CF93C8
:100D6000DF93EC017A018B01DD24403081EE5807DE
:100D700080E0680780E0780711F0DD24D39491E0EB
:100D8000A92EB12CEC89FD89DD2069F0C50108A0F0
:100D900002C0880F991F0A94E2F7808360E079E02F
:100DA0008DE390E005C0108260E874E88EE190E089
:100DB000A80197010E94B20C2150304040405040A1
:100DC000569547953795279580E12030380720F0D4
:100DD000DD2011F0DD24D6CFE889F9893083EA8956
:100DE000FB89208319A2EE89FF89408121E030E050
:100DF000C9010C8C02C0880F991F0A94E2F7482B96
:100E00004083EE89FF894081C9010D8C02C0880FA3
:100E1000991F0A94E2F7482B4083EE89FF894081AD
:100E2000C9010E8C02C0880F991F0A94E2F7482B63
:100E30004083EE89FF8980810F8C02C0220F331F0F
:100E40000A94E2F7209528232083DF91CF911F9108
:100E50000F91FF90EF90DF90BF90AF900895DC016D
:100E60001C96ED91FC911D97E05CFF4F2191319113
:100E700080819181281B390B2F733070C90108952F
:100E8000DC011C96ED91FC911D97E05CFF4F2081E9
:100E90003181E054F040DF01AE5BBF4F8D919C91FA
:100EA00011972817390719F42FEF3FEF07C08D91DD
:100EB0009C91E80FF91F8081282F30E0C901089527
:100EC000DC011C96ED91FC911D97E05CFF4F2081A9
:100ED0003181E054F040DF01AE5BBF4F8D919C91BA
:100EE00011972817390719F42FEF3FEF10C08D9194
:100EF0009C911197E80FF91F20818D919C9111977A
:100F000001968F73907011969C938E9330E0C90177
:100F10000895DC0191968C919197882339F054962D
:100F2000ED91FC915597808186FFF9CF91961C92A7
:100F30000895CF93DF93EC01EE85FF85E05CFF4FD2
:100F400020813181E054F0402F5F3F4F2F7330708C
:100F5000DF01AE5BBF4F8D919C9111972817390728
:100F6000D1F3E05CFF4F80819181E054F040E80FC5
:100F7000F91F6083EE85FF85E05CFF4F318320839E
:100F8000EE89FF89208181E090E00F8C02C0880FFC
:100F9000991F0A94E2F7282B208381E089A3EC892A
:100FA000FD8980818064808381E090E0DF91CF9132
:100FB0000895109278021092770288EE93E0A0E0F4
:100FC000B0E08093790290937A02A0937B02B09371
:100FD0007C028CE291E090937602809375028DEE14
:100FE00091E0909382028093810281E392E090935A
:100FF00084028093830285EC90E090938602809334
:10100000850284EC90E0909388028093870280ECC4
:1010100090E090938A028093890281EC90E0909313
:101020008C0280938B0282EC90E090938E028093EE
:101030008D0286EC90E09093900280938F0284E082
:101040008093910283E08093920287E080939302E1
:1010500085E08093940281E0809395020895CF9378
:10106000DF930E9478040E949A02CAE5D6E00E94AB
:101070004C022097E1F30E945A06F9CFCF92DF92FB
:10108000EF92FF920F931F93CF93DF937C016B013D
:101090008A01C0E0D0E00FC0D6016D916D01D7018B
:1010A000ED91FC910190F081E02DC7010995C80FE9
:1010B000D91F015010400115110571F7CE01DF91C4
:1010C000CF911F910F91FF90EF90DF90CF900895F7
:1010D000EF92FF920F931F938C01DC01ED91FC9135
:1010E0000190F081E02D6DE009957C01D801ED9132
:1010F000FC910190F081E02DC8016AE009959C0106
:101100002E0D3F1DC9011F910F91FF90EF90089583
:10111000CF93DF93EC016115710519F420E030E005
:101120000FC0DB010D900020E9F71197A61BB70B4C
:10113000E881F9810280F381E02DAD0109959C01E0
:10114000C901DF91CF9108954F925F927F928F9264
:101150009F92AF92BF92CF92DF92EF92FF920F9346
:101160001F93DF93CF93CDB7DEB7A1970FB6F89457
:10117000DEBF0FBECDBF2C01742ECB01223008F490
:101180002AE019A231E2C32ED12CCC0EDD1E822E14
:101190009924AA24BB24672D752FA50194010E94D0
:1011A000B20C79018A01C801B701A50194010E941E
:1011B000800C472D461B0894C108D1084A3014F40E
:1011C000405D01C0495CF6014083E114F104010572
:1011D000110521F07E2C5F2DC801DDCFC201B601C3
:1011E0000E948808A1960FB6F894DEBF0FBECDBF4F
:1011F000CF91DF911F910F91FF90EF90DF90CF90F3
:10120000BF90AF909F908F907F905F904F90089588
:10121000DC012115310541F4ED91FC910190F08143
:10122000E02D642F099508950E94A4080895CF9297
:10123000DF92EF92FF920F931F93CF93DF93EC0116
:101240006A017B012115310541F4E881F9810190A2
:10125000F081E02D642F09951FC02A303105D1F4AB
:1012600077FF17C0E881F9810190F081E02D6DE2F0
:1012700009958C0144275527BA014C195D096E095F
:101280007F09CE012AE00E94A4089801280F391F87
:1012900004C02AE00E94A4089C01C901DF91CF91FB
:1012A0001F910F91FF90EF90DF90CF9008957F9264
:1012B0008F929F92AF92BF92CF92DF92EF92FF9266
:1012C0000F931F93CF93DF934C017A018B01722E02
:1012D000CB01BA01A80197010E947C0C882321F060
:1012E000C40163E171E021C0C0E0D0E057016801B2
:1012F000E894D7F8C601B5012FEF3FEF4FE75FE75E
:101300000E947C0C882351F4C601B5012FEF3FEFFA
:101310004FE75FE70E94C60A181614F0C1E0D0E05C
:10132000219739F0C40167E171E00E948808EC015F
:1013300093C0C801B7012FEF3FEF4FE75FE40E9472
:10134000150C181654F0C801B7012FEF3FEF4FE707
:101350005FEC0E94C60A882324F4C4016BE171E0AB
:10136000E4CFC801B70120E030E040E050E00E9447
:10137000C60A87FD03C0C0E0D0E00EC0D401ED91E5
:10138000FC910190F081E02DC4016DE20995EC0122
:1013900017FB109517F9109520E030E040E05FE36F
:1013A000DD240BC0CA01B90120E030E040E251E485
:1013B0000E94CA0A9B01AC01D394D71498F3C801C8
:1013C000B7010E94620A5B016C010E94370B7B012E
:1013D0008C01C401B801A7012AE030E00E9408098D
:1013E000C80FD91F772039F0C4016FE171E00E9466
:1013F0008808C80FD91FC801B7010E94630B9B0161
:10140000AC01C601B5010E94610A24C020E030E0B1
:1014100040E251E40E94190C7B018C010E94320BC6
:101420005B016C01CC24B7FCC094DC2CC401B60178
:10143000A5012AE030E00E941709C80FD91FC60194
:10144000B5010E94650B9B01AC01C801B7010E9468
:10145000610A7A947720D1F6CE01DF91CF911F9166
:101460000F91FF90EF90DF90CF90BF90AF909F9043
:101470008F907F900895EF92FF920F931F937C01BE
:101480000E9457098C01C7010E946808080F191FA4
:10149000C8011F910F91FF90EF900895EF92FF9276
:1014A0000F931F937C010E9488088C01C7010E9442
:1014B0006808080F191FC8011F910F91FF90EF9046
:1014C00008955058BB27AA270ED075C166D130F0B9
:1014D0006BD120F031F49F3F11F41EF45BC10EF488
:1014E000E095E7FB51C1E92F77D180F3BA17620786
:1014F00073078407950718F071F49EF58FC10EF4F9
:10150000E0950B2EBA2FA02D0B01B90190010C0113
:10151000CA01A0011124FF27591B99F0593F50F42B
:10152000503E68F11A16F040A22F232F342F442783
:10153000585FF3CF469537952795A795F04053957B
:10154000C9F77EF41F16BA0B620B730B840BBAF04B
:101550009150A1F0FF0FBB1F661F771F881FC2F7B6
:101560000EC0BA0F621F731F841F48F487957795CA
:101570006795B795F7959E3F08F0B3CF9395880F81
:1015800008F09927EE0F979587950895D9D008F41C
:1015900081E008950CD00FC107D140F0FED030F0AB
:1015A00021F45F3F19F0F0C0511139C1F3C014D1DB
:1015B00098F39923C9F35523B1F3951B550BBB271A
:1015C000AA2762177307840738F09F5F5F4F220FC7
:1015D000331F441FAA1FA9F333D00E2E3AF0E0E8C0
:1015E00030D091505040E695001CCAF729D0FE2F0C
:1015F00027D0660F771F881FBB1F2617370748079E
:10160000AB07B0E809F0BB0B802DBF01FF27935853
:101610005F4F2AF09E3F510568F0B6C000C15F3FA2
:10162000ECF3983EDCF3869577956795B795F7953B
:101630009F5FC9F7880F911D9695879597F9089533
:10164000E1E0660F771F881FBB1F621773078407CF
:10165000BA0720F0621B730B840BBA0BEE1F88F7DE
:10166000E095089504D06894B111D9C00895BCD014
:1016700088F09F5790F0B92F9927B751A0F0D1F07B
:10168000660F771F881F991F1AF0BA95C9F712C005
:10169000B13081F0C3D0B1E00895C0C0672F782F7A
:1016A0008827B85F39F0B93FCCF386957795679571
:1016B000B395D9F73EF490958095709561957F4FDD
:1016C0008F4F9F4F0895E89409C097FB3EF4909583
:1016D0008095709561957F4F8F4F9F4F9923A9F00B
:1016E000F92F96E9BB279395F6958795779567959A
:1016F000B795F111F8CFFAF4BB0F11F460FF1BC0DE
:101700006F5F7F4F8F4F9F4F16C0882311F096E970
:1017100011C0772321F09EE8872F762F05C066231E
:1017200071F096E8862F70E060E02AF09A95660FD7
:10173000771F881FDAF7880F9695879597F9089590
:10174000990F0008550FAA0BE0E8FEEF16161706D2
:10175000E807F907C0F012161306E407F50798F03A
:10176000621B730B840B950B39F40A2661F0232B53
:10177000242B252B21F408950A2609F4A140A695CF
:101780008FEF811D811D089597F99F6780E870E0B4
:1017900060E008959FEF80EC089500240A941616E7
:1017A000170618060906089500240A94121613064F
:1017B000140605060895092E0394000C11F48823DD
:1017C00052F0BB0F40F4BF2B11F460FF04C06F5FF9
:1017D0007F4F8F4F9F4F089557FD9058440F551FCF
:1017E00059F05F3F71F04795880F97FB991F61F0A3
:1017F0009F3F79F087950895121613061406551F1A
:10180000F2CF4695F1DF08C0161617061806991F85
:10181000F1CF86957105610508940895E894BB277A
:1018200066277727CB0197F908958ADF08F48FEFB1
:1018300008950BD0C0CFB1DF28F0B6DF18F09523A4
:1018400009F0A2CFA7CF1124EACFC6DFA0F3959F5E
:10185000D1F3950F50E0551F629FF001729FBB2797
:10186000F00DB11D639FAA27F00DB11DAA1F649F43
:101870006627B00DA11D661F829F2227B00DA11DF6
:10188000621F739FB00DA11D621F839FA00D611D7C
:10189000221F749F3327A00D611D231F849F600D9D
:1018A000211D822F762F6A2F11249F5750408AF0D6
:1018B000E1F088234AF0EE0FFF1FBB1F661F771F62
:1018C000881F91505040A9F79E3F510570F05CCFA2
:1018D000A6CF5F3FECF3983EDCF38695779567954E
:1018E000B795F795E7959F5FC1F7FE2B880F911D80
:1018F0009695879597F9089523DF880B990B08959E
:10190000629FD001739FF001829FE00DF11D649FE3
:10191000E00DF11D929FF00D839FF00D749FF00D6F
:10192000659FF00D9927729FB00DE11DF91F639F10
:10193000B00DE11DF91FBD01CF011124089597FBE2
:10194000092E07260AD077FD04D049D006D0002002
:101950001AF4709561957F4F0895F6F790958195EB
:101960009F4F0895A1E21A2EAA1BBB1BFD010DC0BB
:10197000AA1FBB1FEE1FFF1FA217B307E407F5073F
:1019800020F0A21BB30BE40BF50B661F771F881F1B
:10199000991F1A9469F760957095809590959B01B1
:1019A000AC01BD01CF01089597FB092E05260ED08D
:1019B00057FD04D0D7DF0AD0001C38F4509540956D
:1019C000309521953F4F4F4F5F4F0895F6F7909513
:1019D0008095709561957F4F8F4F9F4F0895AA1BFB
:1019E000BB1B51E107C0AA1FBB1FA617B70710F00A
:1019F000A61BB70B881F991F5A95A9F7809590953C
:101A0000BC01CD010895EE0FFF1F0590F491E02D6C
:061A10000994F894FFCFD9
:101A16002D2D204F4E202D2D002D2D204F464620BA
:101A26002D2D006E616E00696E66006F7666002E63
:101A3600000100C8003200010000000099073E08BE
:081A46002F0760074007890724
:00000001FF
